{
  "contractName": "TodoList",
  "abi": [
    {
      "constant": true,
      "inputs": [],
      "name": "taskCount",
      "outputs": [
        {
          "name": "",
          "type": "uint256"
        }
      ],
      "payable": false,
      "stateMutability": "view",
      "type": "function",
      "signature": "0xb6cb58a5"
    },
    {
      "inputs": [],
      "payable": false,
      "stateMutability": "nonpayable",
      "type": "constructor",
      "signature": "constructor"
    },
    {
      "constant": false,
      "inputs": [
        {
          "name": "_content",
          "type": "string"
        }
      ],
      "name": "createTask",
      "outputs": [],
      "payable": false,
      "stateMutability": "nonpayable",
      "type": "function",
      "signature": "0x111002aa"
    }
  ],
  "bytecode": "0x60806040526000805534801561001457600080fd5b5060408051808201909152600c81527f436865636b6f7574206d65210000000000000000000000000000000000000000602082015261005b90640100000000610060810204565b610167565b60008054600190810180835560408051606081018252828152602080820187815282840187905293865284815291909420845181559151805192936100ad939085019291909101906100cc565b50604091909101516002909101805460ff191691151591909117905550565b828054600181600116156101000203166002900490600052602060002090601f016020900481019282601f1061010d57805160ff191683800117855561013a565b8280016001018555821561013a579182015b8281111561013a57825182559160200191906001019061011f565b5061014692915061014a565b5090565b61016491905b808211156101465760008155600101610150565b90565b610265806101766000396000f3fe60806040526004361061004b5763ffffffff7c0100000000000000000000000000000000000000000000000000000000600035041663111002aa8114610050578063b6cb58a514610105575b600080fd5b34801561005c57600080fd5b506101036004803603602081101561007357600080fd5b81019060208101813564010000000081111561008e57600080fd5b8201836020820111156100a057600080fd5b803590602001918460018302840111640100000000831117156100c257600080fd5b91908080601f01602080910402602001604051908101604052809392919081815260200183838082843760009201919091525092955061012c945050505050565b005b34801561011157600080fd5b5061011a610198565b60408051918252519081900360200190f35b60008054600190810180835560408051606081018252828152602080820187815282840187905293865284815291909420845181559151805192936101799390850192919091019061019e565b50604091909101516002909101805460ff191691151591909117905550565b60005481565b828054600181600116156101000203166002900490600052602060002090601f016020900481019282601f106101df57805160ff191683800117855561020c565b8280016001018555821561020c579182015b8281111561020c5782518255916020019190600101906101f1565b5061021892915061021c565b5090565b61023691905b808211156102185760008155600101610222565b9056fea165627a7a72305820746953a0a858965affe1b8640c2c110611d8c26f69c1bc35b941ce6bb5ebc8110029",
  "source": "// SPDX-License-Identifier: MIT\r\npragma solidity >=0.4.22 <0.9.0;\r\n\r\ncontract TodoList {\r\n  uint public taskCount = 0;\r\n\r\n  struct Task {\r\n      uint id;\r\n      string content;\r\n      bool completed;\r\n  }\r\n  \r\n  mapping(uint => Task) tasks;\r\n  \r\n  constructor() public {\r\n      createTask(\"Checkout me!\");\r\n  }\r\n\r\n  function createTask(string memory _content) public {\r\n      taskCount ++;\r\n      tasks[taskCount] = Task(taskCount, _content, false);\r\n  }\r\n}\r\n",
  "sourcePath": "G:/Projects/Programming/JS/todoETH/contracts/TodoList.sol",
  "compiler": {
    "name": "solc",
    "version": "0.5.0+commit.1d4f565a.Emscripten.clang"
  },
  "schemaVersion": "3.0.1",
  "updatedAt": "2021-08-31T12:30:28.091Z",
  "devdoc": {
    "methods": {}
  },
  "userdoc": {
    "methods": {}
  }
}